{
  "_format": "hh-sol-artifact-1",
  "contractName": "Crowdfunding",
  "sourceName": "contracts/Crowdfunding.sol",
  "abi": [
    {
      "inputs": [
        {
          "internalType": "uint256",
          "name": "_goal",
          "type": "uint256"
        },
        {
          "internalType": "uint256",
          "name": "_durationInSeconds",
          "type": "uint256"
        }
      ],
      "stateMutability": "nonpayable",
      "type": "constructor"
    },
    {
      "inputs": [],
      "name": "CampaignEnded",
      "type": "error"
    },
    {
      "inputs": [],
      "name": "CampaignNotEnded",
      "type": "error"
    },
    {
      "inputs": [],
      "name": "GoalAlreadyReached",
      "type": "error"
    },
    {
      "inputs": [],
      "name": "GoalNotReached",
      "type": "error"
    },
    {
      "inputs": [],
      "name": "NotOwner",
      "type": "error"
    },
    {
      "inputs": [],
      "name": "NothingToRefund",
      "type": "error"
    },
    {
      "inputs": [],
      "name": "WithdrawAlreadyDone",
      "type": "error"
    },
    {
      "inputs": [],
      "name": "ZeroValue",
      "type": "error"
    },
    {
      "anonymous": false,
      "inputs": [
        {
          "indexed": true,
          "internalType": "address",
          "name": "contributor",
          "type": "address"
        },
        {
          "indexed": false,
          "internalType": "uint256",
          "name": "amount",
          "type": "uint256"
        },
        {
          "indexed": false,
          "internalType": "uint256",
          "name": "totalRaised",
          "type": "uint256"
        }
      ],
      "name": "ContributionReceived",
      "type": "event"
    },
    {
      "anonymous": false,
      "inputs": [
        {
          "indexed": true,
          "internalType": "address",
          "name": "owner",
          "type": "address"
        },
        {
          "indexed": false,
          "internalType": "uint256",
          "name": "amount",
          "type": "uint256"
        }
      ],
      "name": "OwnerWithdrawal",
      "type": "event"
    },
    {
      "anonymous": false,
      "inputs": [
        {
          "indexed": true,
          "internalType": "address",
          "name": "contributor",
          "type": "address"
        },
        {
          "indexed": false,
          "internalType": "uint256",
          "name": "amount",
          "type": "uint256"
        }
      ],
      "name": "RefundClaimed",
      "type": "event"
    },
    {
      "inputs": [],
      "name": "claimRefund",
      "outputs": [],
      "stateMutability": "nonpayable",
      "type": "function"
    },
    {
      "inputs": [],
      "name": "contribute",
      "outputs": [],
      "stateMutability": "payable",
      "type": "function"
    },
    {
      "inputs": [
        {
          "internalType": "address",
          "name": "",
          "type": "address"
        }
      ],
      "name": "contributions",
      "outputs": [
        {
          "internalType": "uint256",
          "name": "",
          "type": "uint256"
        }
      ],
      "stateMutability": "view",
      "type": "function"
    },
    {
      "inputs": [],
      "name": "deadline",
      "outputs": [
        {
          "internalType": "uint256",
          "name": "",
          "type": "uint256"
        }
      ],
      "stateMutability": "view",
      "type": "function"
    },
    {
      "inputs": [],
      "name": "getCampaignStatus",
      "outputs": [
        {
          "internalType": "bool",
          "name": "isActive",
          "type": "bool"
        },
        {
          "internalType": "bool",
          "name": "isSuccessful",
          "type": "bool"
        },
        {
          "internalType": "bool",
          "name": "canRefund",
          "type": "bool"
        }
      ],
      "stateMutability": "view",
      "type": "function"
    },
    {
      "inputs": [],
      "name": "goal",
      "outputs": [
        {
          "internalType": "uint256",
          "name": "",
          "type": "uint256"
        }
      ],
      "stateMutability": "view",
      "type": "function"
    },
    {
      "inputs": [],
      "name": "owner",
      "outputs": [
        {
          "internalType": "address",
          "name": "",
          "type": "address"
        }
      ],
      "stateMutability": "view",
      "type": "function"
    },
    {
      "inputs": [],
      "name": "ownerWithdrawn",
      "outputs": [
        {
          "internalType": "bool",
          "name": "",
          "type": "bool"
        }
      ],
      "stateMutability": "view",
      "type": "function"
    },
    {
      "inputs": [],
      "name": "totalRaised",
      "outputs": [
        {
          "internalType": "uint256",
          "name": "",
          "type": "uint256"
        }
      ],
      "stateMutability": "view",
      "type": "function"
    },
    {
      "inputs": [],
      "name": "withdrawIfGoalReached",
      "outputs": [],
      "stateMutability": "nonpayable",
      "type": "function"
    }
  ],
  "bytecode": "0x60e06040523480156200001157600080fd5b50604051620011053803806200110583398181016040528101906200003791906200015c565b600082116200007d576040517f08c379a0000000000000000000000000000000000000000000000000000000008152600401620000749062000204565b60405180910390fd5b60008111620000c3576040517f08c379a0000000000000000000000000000000000000000000000000000000008152600401620000ba9062000276565b60405180910390fd5b3373ffffffffffffffffffffffffffffffffffffffff1660808173ffffffffffffffffffffffffffffffffffffffff16815250508160a0818152505080426200010d9190620002c7565b60c08181525050505062000302565b600080fd5b6000819050919050565b620001368162000121565b81146200014257600080fd5b50565b60008151905062000156816200012b565b92915050565b600080604083850312156200017657620001756200011c565b5b6000620001868582860162000145565b9250506020620001998582860162000145565b9150509250929050565b600082825260208201905092915050565b7f476f616c206d757374206265203e203000000000000000000000000000000000600082015250565b6000620001ec601083620001a3565b9150620001f982620001b4565b602082019050919050565b600060208201905081810360008301526200021f81620001dd565b9050919050565b7f4475726174696f6e206d757374206265203e2030000000000000000000000000600082015250565b60006200025e601483620001a3565b91506200026b8262000226565b602082019050919050565b6000602082019050818103600083015262000291816200024f565b9050919050565b7f4e487b7100000000000000000000000000000000000000000000000000000000600052601160045260246000fd5b6000620002d48262000121565b9150620002e18362000121565b9250828201905080821115620002fc57620002fb62000298565b5b92915050565b60805160a05160c051610d786200038d600039600081816102160152818161023b0152818161028f015281816102e7015281816103f00152818161064a01526108d9015260008181610266015281816102ba0152818161030b0152818161044a01526106a40152600081816103470152818161036b0152818161050e01526105d80152610d786000f3fe6080604052600436106100915760003560e01c806390a5f0511161005957806390a5f05114610181578063b5545a3c14610198578063c20615ed146101af578063c5c4744c146101da578063d7bb99ba1461020557610091565b8063105505151461009657806329dcb0cf146100c357806340193883146100ee57806342e94c90146101195780638da5cb5b14610156575b600080fd5b3480156100a257600080fd5b506100ab61020f565b6040516100ba93929190610a47565b60405180910390f35b3480156100cf57600080fd5b506100d86102e5565b6040516100e59190610a97565b60405180910390f35b3480156100fa57600080fd5b50610103610309565b6040516101109190610a97565b60405180910390f35b34801561012557600080fd5b50610140600480360381019061013b9190610b15565b61032d565b60405161014d9190610a97565b60405180910390f35b34801561016257600080fd5b5061016b610345565b6040516101789190610b51565b60405180910390f35b34801561018d57600080fd5b50610196610369565b005b3480156101a457600080fd5b506101ad610648565b005b3480156101bb57600080fd5b506101c46108be565b6040516101d19190610b6c565b60405180910390f35b3480156101e657600080fd5b506101ef6108d1565b6040516101fc9190610a97565b60405180910390f35b61020d6108d7565b005b60008060007f0000000000000000000000000000000000000000000000000000000000000000421092507f0000000000000000000000000000000000000000000000000000000000000000421015801561028b57507f000000000000000000000000000000000000000000000000000000000000000060005410155b91507f000000000000000000000000000000000000000000000000000000000000000042101580156102de57507f0000000000000000000000000000000000000000000000000000000000000000600054105b9050909192565b7f000000000000000000000000000000000000000000000000000000000000000081565b7f000000000000000000000000000000000000000000000000000000000000000081565b60026020528060005260406000206000915090505481565b7f000000000000000000000000000000000000000000000000000000000000000081565b7f000000000000000000000000000000000000000000000000000000000000000073ffffffffffffffffffffffffffffffffffffffff163373ffffffffffffffffffffffffffffffffffffffff16146103ee576040517f30cd747100000000000000000000000000000000000000000000000000000000815260040160405180910390fd5b7f0000000000000000000000000000000000000000000000000000000000000000421015610448576040517fcc76115300000000000000000000000000000000000000000000000000000000815260040160405180910390fd5b7f000000000000000000000000000000000000000000000000000000000000000060005410156104a4576040517f78c754c900000000000000000000000000000000000000000000000000000000815260040160405180910390fd5b600160009054906101000a900460ff16156104eb576040517f14f640f800000000000000000000000000000000000000000000000000000000815260040160405180910390fd5b60018060006101000a81548160ff021916908315150217905550600047905060007f000000000000000000000000000000000000000000000000000000000000000073ffffffffffffffffffffffffffffffffffffffff168260405161055090610bb8565b60006040518083038185875af1925050503d806000811461058d576040519150601f19603f3d011682016040523d82523d6000602084013e610592565b606091505b50509050806105d6576040517f08c379a00000000000000000000000000000000000000000000000000000000081526004016105cd90610c2a565b60405180910390fd5b7f000000000000000000000000000000000000000000000000000000000000000073ffffffffffffffffffffffffffffffffffffffff167fa919fadcfa556a012bab31b15f596ea7ccd397adbf10e15f176db9055ab361c48360405161063c9190610a97565b60405180910390a25050565b7f00000000000000000000000000000000000000000000000000000000000000004210156106a2576040517fcc76115300000000000000000000000000000000000000000000000000000000815260040160405180910390fd5b7f0000000000000000000000000000000000000000000000000000000000000000600054106106fd576040517f8cb8251e00000000000000000000000000000000000000000000000000000000815260040160405180910390fd5b6000600260003373ffffffffffffffffffffffffffffffffffffffff1673ffffffffffffffffffffffffffffffffffffffff1681526020019081526020016000205490506000810361077b576040517ff76aef6500000000000000000000000000000000000000000000000000000000815260040160405180910390fd5b6000600260003373ffffffffffffffffffffffffffffffffffffffff1673ffffffffffffffffffffffffffffffffffffffff1681526020019081526020016000208190555060003373ffffffffffffffffffffffffffffffffffffffff16826040516107e690610bb8565b60006040518083038185875af1925050503d8060008114610823576040519150601f19603f3d011682016040523d82523d6000602084013e610828565b606091505b505090508061086c576040517f08c379a000000000000000000000000000000000000000000000000000000000815260040161086390610c96565b60405180910390fd5b3373ffffffffffffffffffffffffffffffffffffffff167f358fe4192934d3bf28ae181feda1f4bd08ca67f5e2fad55582cce5eb67304ae9836040516108b29190610a97565b60405180910390a25050565b600160009054906101000a900460ff1681565b60005481565b7f00000000000000000000000000000000000000000000000000000000000000004210610930576040517f553ae05400000000000000000000000000000000000000000000000000000000815260040160405180910390fd5b6000340361096a576040517f7c946ed700000000000000000000000000000000000000000000000000000000815260040160405180910390fd5b34600260003373ffffffffffffffffffffffffffffffffffffffff1673ffffffffffffffffffffffffffffffffffffffff16815260200190815260200160002060008282546109b99190610ce5565b92505081905550346000808282546109d19190610ce5565b925050819055503373ffffffffffffffffffffffffffffffffffffffff167fd2dff949d20e874cc6ba1dcefb840fb8cf6000a4197bfb69accfea5a32443ff534600054604051610a22929190610d19565b60405180910390a2565b60008115159050919050565b610a4181610a2c565b82525050565b6000606082019050610a5c6000830186610a38565b610a696020830185610a38565b610a766040830184610a38565b949350505050565b6000819050919050565b610a9181610a7e565b82525050565b6000602082019050610aac6000830184610a88565b92915050565b600080fd5b600073ffffffffffffffffffffffffffffffffffffffff82169050919050565b6000610ae282610ab7565b9050919050565b610af281610ad7565b8114610afd57600080fd5b50565b600081359050610b0f81610ae9565b92915050565b600060208284031215610b2b57610b2a610ab2565b5b6000610b3984828501610b00565b91505092915050565b610b4b81610ad7565b82525050565b6000602082019050610b666000830184610b42565b92915050565b6000602082019050610b816000830184610a38565b92915050565b600081905092915050565b50565b6000610ba2600083610b87565b9150610bad82610b92565b600082019050919050565b6000610bc382610b95565b9150819050919050565b600082825260208201905092915050565b7f5472616e73666572206661696c65640000000000000000000000000000000000600082015250565b6000610c14600f83610bcd565b9150610c1f82610bde565b602082019050919050565b60006020820190508181036000830152610c4381610c07565b9050919050565b7f526566756e64206661696c656400000000000000000000000000000000000000600082015250565b6000610c80600d83610bcd565b9150610c8b82610c4a565b602082019050919050565b60006020820190508181036000830152610caf81610c73565b9050919050565b7f4e487b7100000000000000000000000000000000000000000000000000000000600052601160045260246000fd5b6000610cf082610a7e565b9150610cfb83610a7e565b9250828201905080821115610d1357610d12610cb6565b5b92915050565b6000604082019050610d2e6000830185610a88565b610d3b6020830184610a88565b939250505056fea26469706673582212203ee43bf8f02326e9fa234a156534752d145130072b3da79bfd4d8d7050722ed364736f6c63430008140033",
  "linkReferences": {},
  "deployedLinkReferences": {}
}